{
  "_format": "hh-sol-artifact-1",
  "contractName": "ChibiUSD",
  "sourceName": "contracts/Chibi USD.sol",
  "abi": [
    {
      "inputs": [],
      "stateMutability": "nonpayable",
      "type": "constructor"
    },
    {
      "anonymous": false,
      "inputs": [
        {
          "indexed": true,
          "internalType": "address",
          "name": "owner",
          "type": "address"
        },
        {
          "indexed": true,
          "internalType": "address",
          "name": "spender",
          "type": "address"
        },
        {
          "indexed": false,
          "internalType": "uint256",
          "name": "value",
          "type": "uint256"
        }
      ],
      "name": "Approval",
      "type": "event"
    },
    {
      "anonymous": false,
      "inputs": [
        {
          "indexed": true,
          "internalType": "address",
          "name": "previousOwner",
          "type": "address"
        },
        {
          "indexed": true,
          "internalType": "address",
          "name": "newOwner",
          "type": "address"
        }
      ],
      "name": "OwnershipTransferred",
      "type": "event"
    },
    {
      "anonymous": false,
      "inputs": [
        {
          "indexed": false,
          "internalType": "address",
          "name": "account",
          "type": "address"
        }
      ],
      "name": "Paused",
      "type": "event"
    },
    {
      "anonymous": false,
      "inputs": [
        {
          "indexed": true,
          "internalType": "address",
          "name": "from",
          "type": "address"
        },
        {
          "indexed": true,
          "internalType": "address",
          "name": "to",
          "type": "address"
        },
        {
          "indexed": false,
          "internalType": "uint256",
          "name": "value",
          "type": "uint256"
        }
      ],
      "name": "Transfer",
      "type": "event"
    },
    {
      "anonymous": false,
      "inputs": [
        {
          "indexed": false,
          "internalType": "address",
          "name": "account",
          "type": "address"
        }
      ],
      "name": "Unpaused",
      "type": "event"
    },
    {
      "inputs": [
        {
          "internalType": "address",
          "name": "owner",
          "type": "address"
        },
        {
          "internalType": "address",
          "name": "spender",
          "type": "address"
        }
      ],
      "name": "allowance",
      "outputs": [
        {
          "internalType": "uint256",
          "name": "",
          "type": "uint256"
        }
      ],
      "stateMutability": "view",
      "type": "function"
    },
    {
      "inputs": [
        {
          "internalType": "address",
          "name": "spender",
          "type": "address"
        },
        {
          "internalType": "uint256",
          "name": "amount",
          "type": "uint256"
        }
      ],
      "name": "approve",
      "outputs": [
        {
          "internalType": "bool",
          "name": "",
          "type": "bool"
        }
      ],
      "stateMutability": "nonpayable",
      "type": "function"
    },
    {
      "inputs": [
        {
          "internalType": "address",
          "name": "account",
          "type": "address"
        }
      ],
      "name": "balanceOf",
      "outputs": [
        {
          "internalType": "uint256",
          "name": "",
          "type": "uint256"
        }
      ],
      "stateMutability": "view",
      "type": "function"
    },
    {
      "inputs": [],
      "name": "claim",
      "outputs": [],
      "stateMutability": "nonpayable",
      "type": "function"
    },
    {
      "inputs": [],
      "name": "decimals",
      "outputs": [
        {
          "internalType": "uint8",
          "name": "",
          "type": "uint8"
        }
      ],
      "stateMutability": "view",
      "type": "function"
    },
    {
      "inputs": [
        {
          "internalType": "address",
          "name": "spender",
          "type": "address"
        },
        {
          "internalType": "uint256",
          "name": "subtractedValue",
          "type": "uint256"
        }
      ],
      "name": "decreaseAllowance",
      "outputs": [
        {
          "internalType": "bool",
          "name": "",
          "type": "bool"
        }
      ],
      "stateMutability": "nonpayable",
      "type": "function"
    },
    {
      "inputs": [],
      "name": "getTimeToUnlock",
      "outputs": [
        {
          "internalType": "uint256",
          "name": "",
          "type": "uint256"
        }
      ],
      "stateMutability": "view",
      "type": "function"
    },
    {
      "inputs": [
        {
          "internalType": "address",
          "name": "wallet",
          "type": "address"
        }
      ],
      "name": "getWalletTimeToUnlock",
      "outputs": [
        {
          "internalType": "uint256",
          "name": "",
          "type": "uint256"
        }
      ],
      "stateMutability": "view",
      "type": "function"
    },
    {
      "inputs": [
        {
          "internalType": "address",
          "name": "spender",
          "type": "address"
        },
        {
          "internalType": "uint256",
          "name": "addedValue",
          "type": "uint256"
        }
      ],
      "name": "increaseAllowance",
      "outputs": [
        {
          "internalType": "bool",
          "name": "",
          "type": "bool"
        }
      ],
      "stateMutability": "nonpayable",
      "type": "function"
    },
    {
      "inputs": [
        {
          "internalType": "address",
          "name": "to",
          "type": "address"
        },
        {
          "internalType": "uint256",
          "name": "amount",
          "type": "uint256"
        }
      ],
      "name": "mint",
      "outputs": [],
      "stateMutability": "nonpayable",
      "type": "function"
    },
    {
      "inputs": [],
      "name": "name",
      "outputs": [
        {
          "internalType": "string",
          "name": "",
          "type": "string"
        }
      ],
      "stateMutability": "view",
      "type": "function"
    },
    {
      "inputs": [],
      "name": "owner",
      "outputs": [
        {
          "internalType": "address",
          "name": "",
          "type": "address"
        }
      ],
      "stateMutability": "view",
      "type": "function"
    },
    {
      "inputs": [],
      "name": "pause",
      "outputs": [],
      "stateMutability": "nonpayable",
      "type": "function"
    },
    {
      "inputs": [],
      "name": "paused",
      "outputs": [
        {
          "internalType": "bool",
          "name": "",
          "type": "bool"
        }
      ],
      "stateMutability": "view",
      "type": "function"
    },
    {
      "inputs": [],
      "name": "renounceOwnership",
      "outputs": [],
      "stateMutability": "nonpayable",
      "type": "function"
    },
    {
      "inputs": [],
      "name": "symbol",
      "outputs": [
        {
          "internalType": "string",
          "name": "",
          "type": "string"
        }
      ],
      "stateMutability": "view",
      "type": "function"
    },
    {
      "inputs": [
        {
          "internalType": "address",
          "name": "",
          "type": "address"
        }
      ],
      "name": "timeLock",
      "outputs": [
        {
          "internalType": "uint256",
          "name": "",
          "type": "uint256"
        }
      ],
      "stateMutability": "view",
      "type": "function"
    },
    {
      "inputs": [],
      "name": "totalSupply",
      "outputs": [
        {
          "internalType": "uint256",
          "name": "",
          "type": "uint256"
        }
      ],
      "stateMutability": "view",
      "type": "function"
    },
    {
      "inputs": [
        {
          "internalType": "address",
          "name": "to",
          "type": "address"
        },
        {
          "internalType": "uint256",
          "name": "amount",
          "type": "uint256"
        }
      ],
      "name": "transfer",
      "outputs": [
        {
          "internalType": "bool",
          "name": "",
          "type": "bool"
        }
      ],
      "stateMutability": "nonpayable",
      "type": "function"
    },
    {
      "inputs": [
        {
          "internalType": "address",
          "name": "from",
          "type": "address"
        },
        {
          "internalType": "address",
          "name": "to",
          "type": "address"
        },
        {
          "internalType": "uint256",
          "name": "amount",
          "type": "uint256"
        }
      ],
      "name": "transferFrom",
      "outputs": [
        {
          "internalType": "bool",
          "name": "",
          "type": "bool"
        }
      ],
      "stateMutability": "nonpayable",
      "type": "function"
    },
    {
      "inputs": [
        {
          "internalType": "address",
          "name": "newOwner",
          "type": "address"
        }
      ],
      "name": "transferOwnership",
      "outputs": [],
      "stateMutability": "nonpayable",
      "type": "function"
    },
    {
      "inputs": [],
      "name": "unpause",
      "outputs": [],
      "stateMutability": "nonpayable",
      "type": "function"
    },
    {
      "inputs": [
        {
          "internalType": "address",
          "name": "tokenAddress",
          "type": "address"
        }
      ],
      "name": "withdrawOwner",
      "outputs": [],
      "stateMutability": "payable",
      "type": "function"
    }
  ],
  "bytecode": "0x60806040523480156200001157600080fd5b506040518060400160405280601181526020017f43727970746f20436869626973205553440000000000000000000000000000008152506040518060400160405280600581526020017f4343555344000000000000000000000000000000000000000000000000000000815250816003908051906020019062000096929190620001c1565b508060049080519060200190620000af929190620001c1565b5050506000600560006101000a81548160ff021916908315150217905550620000ed620000e1620000f360201b60201c565b620000fb60201b60201c565b620002d6565b600033905090565b6000600560019054906101000a900473ffffffffffffffffffffffffffffffffffffffff16905081600560016101000a81548173ffffffffffffffffffffffffffffffffffffffff021916908373ffffffffffffffffffffffffffffffffffffffff1602179055508173ffffffffffffffffffffffffffffffffffffffff168173ffffffffffffffffffffffffffffffffffffffff167f8be0079c531659141344cd1fd0a4f28419497f9722a3daafe3b4186f6b6457e060405160405180910390a35050565b828054620001cf9062000271565b90600052602060002090601f016020900481019282620001f357600085556200023f565b82601f106200020e57805160ff19168380011785556200023f565b828001600101855582156200023f579182015b828111156200023e57825182559160200191906001019062000221565b5b5090506200024e919062000252565b5090565b5b808211156200026d57600081600090555060010162000253565b5090565b600060028204905060018216806200028a57607f821691505b60208210811415620002a157620002a0620002a7565b5b50919050565b7f4e487b7100000000000000000000000000000000000000000000000000000000600052602260045260246000fd5b61225a80620002e66000396000f3fe6080604052600436106101405760003560e01c80635649b8ca116100b657806395d89b411161006f57806395d89b411461042b578063a457c2d714610456578063a9059cbb14610493578063d2470f3a146104d0578063dd62ed3e146104fb578063f2fde38b1461053857610140565b80635649b8ca1461032d5780635c975abb1461036a57806370a0823114610395578063715018a6146103d25780638456cb59146103e95780638da5cb5b1461040057610140565b8063395093511161010857806339509351146102405780633f0cea3f1461027d5780633f4ba83a1461029957806340c10f19146102b057806343496568146102d95780634e71d92d1461031657610140565b806306fdde0314610145578063095ea7b31461017057806318160ddd146101ad57806323b872dd146101d8578063313ce56714610215575b600080fd5b34801561015157600080fd5b5061015a610561565b6040516101679190611b2d565b60405180910390f35b34801561017c57600080fd5b50610197600480360381019061019291906117cd565b6105f3565b6040516101a49190611b12565b60405180910390f35b3480156101b957600080fd5b506101c2610616565b6040516101cf9190611cef565b60405180910390f35b3480156101e457600080fd5b506101ff60048036038101906101fa919061177e565b610620565b60405161020c9190611b12565b60405180910390f35b34801561022157600080fd5b5061022a61064f565b6040516102379190611d0a565b60405180910390f35b34801561024c57600080fd5b50610267600480360381019061026291906117cd565b610658565b6040516102749190611b12565b60405180910390f35b61029760048036038101906102929190611719565b61068f565b005b3480156102a557600080fd5b506102ae6108d5565b005b3480156102bc57600080fd5b506102d760048036038101906102d291906117cd565b6108e7565b005b3480156102e557600080fd5b5061030060048036038101906102fb9190611719565b6108fd565b60405161030d9190611cef565b60405180910390f35b34801561032257600080fd5b5061032b610915565b005b34801561033957600080fd5b50610354600480360381019061034f9190611719565b610a48565b6040516103619190611cef565b60405180910390f35b34801561037657600080fd5b5061037f610a99565b60405161038c9190611b12565b60405180910390f35b3480156103a157600080fd5b506103bc60048036038101906103b79190611719565b610ab0565b6040516103c99190611cef565b60405180910390f35b3480156103de57600080fd5b506103e7610af8565b005b3480156103f557600080fd5b506103fe610b0c565b005b34801561040c57600080fd5b50610415610b1e565b6040516104229190611a97565b60405180910390f35b34801561043757600080fd5b50610440610b48565b60405161044d9190611b2d565b60405180910390f35b34801561046257600080fd5b5061047d600480360381019061047891906117cd565b610bda565b60405161048a9190611b12565b60405180910390f35b34801561049f57600080fd5b506104ba60048036038101906104b591906117cd565b610c51565b6040516104c79190611b12565b60405180910390f35b3480156104dc57600080fd5b506104e5610c74565b6040516104f29190611cef565b60405180910390f35b34801561050757600080fd5b50610522600480360381019061051d9190611742565b610cbb565b60405161052f9190611cef565b60405180910390f35b34801561054457600080fd5b5061055f600480360381019061055a9190611719565b610d42565b005b60606003805461057090611e1f565b80601f016020809104026020016040519081016040528092919081815260200182805461059c90611e1f565b80156105e95780601f106105be576101008083540402835291602001916105e9565b820191906000526020600020905b8154815290600101906020018083116105cc57829003601f168201915b5050505050905090565b6000806105fe610dc6565b905061060b818585610dce565b600191505092915050565b6000600254905090565b60008061062b610dc6565b9050610638858285610f99565b610643858585611025565b60019150509392505050565b60006012905090565b600080610663610dc6565b90506106848185856106758589610cbb565b61067f9190611d41565b610dce565b600191505092915050565b6106976112a6565b60008190508073ffffffffffffffffffffffffffffffffffffffff1663095ea7b3308373ffffffffffffffffffffffffffffffffffffffff166370a08231306040518263ffffffff1660e01b81526004016106f29190611a97565b60206040518083038186803b15801561070a57600080fd5b505afa15801561071e573d6000803e3d6000fd5b505050506040513d601f19601f820116820180604052508101906107429190611832565b6040518363ffffffff1660e01b815260040161075f929190611ae9565b602060405180830381600087803b15801561077957600080fd5b505af115801561078d573d6000803e3d6000fd5b505050506040513d601f19601f820116820180604052508101906107b19190611809565b508073ffffffffffffffffffffffffffffffffffffffff166323b872dd306107d7610b1e565b8473ffffffffffffffffffffffffffffffffffffffff166370a08231306040518263ffffffff1660e01b81526004016108109190611a97565b60206040518083038186803b15801561082857600080fd5b505afa15801561083c573d6000803e3d6000fd5b505050506040513d601f19601f820116820180604052508101906108609190611832565b6040518463ffffffff1660e01b815260040161087e93929190611ab2565b602060405180830381600087803b15801561089857600080fd5b505af11580156108ac573d6000803e3d6000fd5b505050506040513d601f19601f820116820180604052508101906108d09190611809565b505050565b6108dd6112a6565b6108e5611324565b565b6108ef6112a6565b6108f98282611387565b5050565b60066020528060005260406000206000915090505481565b6000600660003373ffffffffffffffffffffffffffffffffffffffff1673ffffffffffffffffffffffffffffffffffffffff1681526020019081526020016000205414806109a2575042600660003373ffffffffffffffffffffffffffffffffffffffff1673ffffffffffffffffffffffffffffffffffffffff1681526020019081526020016000205411155b6109e1576040517f08c379a00000000000000000000000000000000000000000000000000000000081526004016109d890611b8f565b60405180910390fd5b62015180426109f09190611d41565b600660003373ffffffffffffffffffffffffffffffffffffffff1673ffffffffffffffffffffffffffffffffffffffff16815260200190815260200160002081905550610a463368138400eca364a00000611387565b565b6000610a526112a6565b600660008373ffffffffffffffffffffffffffffffffffffffff1673ffffffffffffffffffffffffffffffffffffffff168152602001908152602001600020549050919050565b6000600560009054906101000a900460ff16905090565b60008060008373ffffffffffffffffffffffffffffffffffffffff1673ffffffffffffffffffffffffffffffffffffffff168152602001908152602001600020549050919050565b610b006112a6565b610b0a60006114e7565b565b610b146112a6565b610b1c6115ad565b565b6000600560019054906101000a900473ffffffffffffffffffffffffffffffffffffffff16905090565b606060048054610b5790611e1f565b80601f0160208091040260200160405190810160405280929190818152602001828054610b8390611e1f565b8015610bd05780601f10610ba557610100808354040283529160200191610bd0565b820191906000526020600020905b815481529060010190602001808311610bb357829003601f168201915b5050505050905090565b600080610be5610dc6565b90506000610bf38286610cbb565b905083811015610c38576040517f08c379a0000000000000000000000000000000000000000000000000000000008152600401610c2f90611caf565b60405180910390fd5b610c458286868403610dce565b60019250505092915050565b600080610c5c610dc6565b9050610c69818585611025565b600191505092915050565b6000600660003373ffffffffffffffffffffffffffffffffffffffff1673ffffffffffffffffffffffffffffffffffffffff16815260200190815260200160002054905090565b6000600160008473ffffffffffffffffffffffffffffffffffffffff1673ffffffffffffffffffffffffffffffffffffffff16815260200190815260200160002060008373ffffffffffffffffffffffffffffffffffffffff1673ffffffffffffffffffffffffffffffffffffffff16815260200190815260200160002054905092915050565b610d4a6112a6565b600073ffffffffffffffffffffffffffffffffffffffff168173ffffffffffffffffffffffffffffffffffffffff161415610dba576040517f08c379a0000000000000000000000000000000000000000000000000000000008152600401610db190611baf565b60405180910390fd5b610dc3816114e7565b50565b600033905090565b600073ffffffffffffffffffffffffffffffffffffffff168373ffffffffffffffffffffffffffffffffffffffff161415610e3e576040517f08c379a0000000000000000000000000000000000000000000000000000000008152600401610e3590611c8f565b60405180910390fd5b600073ffffffffffffffffffffffffffffffffffffffff168273ffffffffffffffffffffffffffffffffffffffff161415610eae576040517f08c379a0000000000000000000000000000000000000000000000000000000008152600401610ea590611bcf565b60405180910390fd5b80600160008573ffffffffffffffffffffffffffffffffffffffff1673ffffffffffffffffffffffffffffffffffffffff16815260200190815260200160002060008473ffffffffffffffffffffffffffffffffffffffff1673ffffffffffffffffffffffffffffffffffffffff168152602001908152602001600020819055508173ffffffffffffffffffffffffffffffffffffffff168373ffffffffffffffffffffffffffffffffffffffff167f8c5be1e5ebec7d5bd14f71427d1e84f3dd0314c0f7b2291e5b200ac8c7c3b92583604051610f8c9190611cef565b60405180910390a3505050565b6000610fa58484610cbb565b90507fffffffffffffffffffffffffffffffffffffffffffffffffffffffffffffffff811461101f5781811015611011576040517f08c379a000000000000000000000000000000000000000000000000000000000815260040161100890611bef565b60405180910390fd5b61101e8484848403610dce565b5b50505050565b600073ffffffffffffffffffffffffffffffffffffffff168373ffffffffffffffffffffffffffffffffffffffff161415611095576040517f08c379a000000000000000000000000000000000000000000000000000000000815260040161108c90611c6f565b60405180910390fd5b600073ffffffffffffffffffffffffffffffffffffffff168273ffffffffffffffffffffffffffffffffffffffff161415611105576040517f08c379a00000000000000000000000000000000000000000000000000000000081526004016110fc90611b4f565b60405180910390fd5b611110838383611610565b60008060008573ffffffffffffffffffffffffffffffffffffffff1673ffffffffffffffffffffffffffffffffffffffff16815260200190815260200160002054905081811015611196576040517f08c379a000000000000000000000000000000000000000000000000000000000815260040161118d90611c0f565b60405180910390fd5b8181036000808673ffffffffffffffffffffffffffffffffffffffff1673ffffffffffffffffffffffffffffffffffffffff16815260200190815260200160002081905550816000808573ffffffffffffffffffffffffffffffffffffffff1673ffffffffffffffffffffffffffffffffffffffff16815260200190815260200160002060008282546112299190611d41565b925050819055508273ffffffffffffffffffffffffffffffffffffffff168473ffffffffffffffffffffffffffffffffffffffff167fddf252ad1be2c89b69c2b068fc378daa952ba7f163c4a11628f55a4df523b3ef8460405161128d9190611cef565b60405180910390a36112a0848484611628565b50505050565b6112ae610dc6565b73ffffffffffffffffffffffffffffffffffffffff166112cc610b1e565b73ffffffffffffffffffffffffffffffffffffffff1614611322576040517f08c379a000000000000000000000000000000000000000000000000000000000815260040161131990611c4f565b60405180910390fd5b565b61132c61162d565b6000600560006101000a81548160ff0219169083151502179055507f5db9ee0a495bf2e6ff9c91a7834c1ba4fdd244a5e8aa4e537bd38aeae4b073aa611370610dc6565b60405161137d9190611a97565b60405180910390a1565b600073ffffffffffffffffffffffffffffffffffffffff168273ffffffffffffffffffffffffffffffffffffffff1614156113f7576040517f08c379a00000000000000000000000000000000000000000000000000000000081526004016113ee90611ccf565b60405180910390fd5b61140360008383611610565b80600260008282546114159190611d41565b92505081905550806000808473ffffffffffffffffffffffffffffffffffffffff1673ffffffffffffffffffffffffffffffffffffffff168152602001908152602001600020600082825461146a9190611d41565b925050819055508173ffffffffffffffffffffffffffffffffffffffff16600073ffffffffffffffffffffffffffffffffffffffff167fddf252ad1be2c89b69c2b068fc378daa952ba7f163c4a11628f55a4df523b3ef836040516114cf9190611cef565b60405180910390a36114e360008383611628565b5050565b6000600560019054906101000a900473ffffffffffffffffffffffffffffffffffffffff16905081600560016101000a81548173ffffffffffffffffffffffffffffffffffffffff021916908373ffffffffffffffffffffffffffffffffffffffff1602179055508173ffffffffffffffffffffffffffffffffffffffff168173ffffffffffffffffffffffffffffffffffffffff167f8be0079c531659141344cd1fd0a4f28419497f9722a3daafe3b4186f6b6457e060405160405180910390a35050565b6115b5611676565b6001600560006101000a81548160ff0219169083151502179055507f62e78cea01bee320cd4e420270b5ea74000d11b0c9f74754ebdbfc544b05a2586115f9610dc6565b6040516116069190611a97565b60405180910390a1565b611618611676565b6116238383836116c0565b505050565b505050565b611635610a99565b611674576040517f08c379a000000000000000000000000000000000000000000000000000000000815260040161166b90611b6f565b60405180910390fd5b565b61167e610a99565b156116be576040517f08c379a00000000000000000000000000000000000000000000000000000000081526004016116b590611c2f565b60405180910390fd5b565b505050565b6000813590506116d4816121df565b92915050565b6000815190506116e9816121f6565b92915050565b6000813590506116fe8161220d565b92915050565b6000815190506117138161220d565b92915050565b60006020828403121561172b57600080fd5b6000611739848285016116c5565b91505092915050565b6000806040838503121561175557600080fd5b6000611763858286016116c5565b9250506020611774858286016116c5565b9150509250929050565b60008060006060848603121561179357600080fd5b60006117a1868287016116c5565b93505060206117b2868287016116c5565b92505060406117c3868287016116ef565b9150509250925092565b600080604083850312156117e057600080fd5b60006117ee858286016116c5565b92505060206117ff858286016116ef565b9150509250929050565b60006020828403121561181b57600080fd5b6000611829848285016116da565b91505092915050565b60006020828403121561184457600080fd5b600061185284828501611704565b91505092915050565b61186481611d97565b82525050565b61187381611da9565b82525050565b600061188482611d25565b61188e8185611d30565b935061189e818560208601611dec565b6118a781611eaf565b840191505092915050565b60006118bf602383611d30565b91506118ca82611ec0565b604082019050919050565b60006118e2601483611d30565b91506118ed82611f0f565b602082019050919050565b6000611905601b83611d30565b915061191082611f38565b602082019050919050565b6000611928602683611d30565b915061193382611f61565b604082019050919050565b600061194b602283611d30565b915061195682611fb0565b604082019050919050565b600061196e601d83611d30565b915061197982611fff565b602082019050919050565b6000611991602683611d30565b915061199c82612028565b604082019050919050565b60006119b4601083611d30565b91506119bf82612077565b602082019050919050565b60006119d7602083611d30565b91506119e2826120a0565b602082019050919050565b60006119fa602583611d30565b9150611a05826120c9565b604082019050919050565b6000611a1d602483611d30565b9150611a2882612118565b604082019050919050565b6000611a40602583611d30565b9150611a4b82612167565b604082019050919050565b6000611a63601f83611d30565b9150611a6e826121b6565b602082019050919050565b611a8281611dd5565b82525050565b611a9181611ddf565b82525050565b6000602082019050611aac600083018461185b565b92915050565b6000606082019050611ac7600083018661185b565b611ad4602083018561185b565b611ae16040830184611a79565b949350505050565b6000604082019050611afe600083018561185b565b611b0b6020830184611a79565b9392505050565b6000602082019050611b27600083018461186a565b92915050565b60006020820190508181036000830152611b478184611879565b905092915050565b60006020820190508181036000830152611b68816118b2565b9050919050565b60006020820190508181036000830152611b88816118d5565b9050919050565b60006020820190508181036000830152611ba8816118f8565b9050919050565b60006020820190508181036000830152611bc88161191b565b9050919050565b60006020820190508181036000830152611be88161193e565b9050919050565b60006020820190508181036000830152611c0881611961565b9050919050565b60006020820190508181036000830152611c2881611984565b9050919050565b60006020820190508181036000830152611c48816119a7565b9050919050565b60006020820190508181036000830152611c68816119ca565b9050919050565b60006020820190508181036000830152611c88816119ed565b9050919050565b60006020820190508181036000830152611ca881611a10565b9050919050565b60006020820190508181036000830152611cc881611a33565b9050919050565b60006020820190508181036000830152611ce881611a56565b9050919050565b6000602082019050611d046000830184611a79565b92915050565b6000602082019050611d1f6000830184611a88565b92915050565b600081519050919050565b600082825260208201905092915050565b6000611d4c82611dd5565b9150611d5783611dd5565b9250827fffffffffffffffffffffffffffffffffffffffffffffffffffffffffffffffff03821115611d8c57611d8b611e51565b5b828201905092915050565b6000611da282611db5565b9050919050565b60008115159050919050565b600073ffffffffffffffffffffffffffffffffffffffff82169050919050565b6000819050919050565b600060ff82169050919050565b60005b83811015611e0a578082015181840152602081019050611def565b83811115611e19576000848401525b50505050565b60006002820490506001821680611e3757607f821691505b60208210811415611e4b57611e4a611e80565b5b50919050565b7f4e487b7100000000000000000000000000000000000000000000000000000000600052601160045260246000fd5b7f4e487b7100000000000000000000000000000000000000000000000000000000600052602260045260246000fd5b6000601f19601f8301169050919050565b7f45524332303a207472616e7366657220746f20746865207a65726f206164647260008201527f6573730000000000000000000000000000000000000000000000000000000000602082015250565b7f5061757361626c653a206e6f7420706175736564000000000000000000000000600082015250565b7f46756e6374696f6e206973206c6f636b65642061776169742e2e2e0000000000600082015250565b7f4f776e61626c653a206e6577206f776e657220697320746865207a65726f206160008201527f6464726573730000000000000000000000000000000000000000000000000000602082015250565b7f45524332303a20617070726f766520746f20746865207a65726f20616464726560008201527f7373000000000000000000000000000000000000000000000000000000000000602082015250565b7f45524332303a20696e73756666696369656e7420616c6c6f77616e6365000000600082015250565b7f45524332303a207472616e7366657220616d6f756e742065786365656473206260008201527f616c616e63650000000000000000000000000000000000000000000000000000602082015250565b7f5061757361626c653a2070617573656400000000000000000000000000000000600082015250565b7f4f776e61626c653a2063616c6c6572206973206e6f7420746865206f776e6572600082015250565b7f45524332303a207472616e736665722066726f6d20746865207a65726f20616460008201527f6472657373000000000000000000000000000000000000000000000000000000602082015250565b7f45524332303a20617070726f76652066726f6d20746865207a65726f2061646460008201527f7265737300000000000000000000000000000000000000000000000000000000602082015250565b7f45524332303a2064656372656173656420616c6c6f77616e63652062656c6f7760008201527f207a65726f000000000000000000000000000000000000000000000000000000602082015250565b7f45524332303a206d696e7420746f20746865207a65726f206164647265737300600082015250565b6121e881611d97565b81146121f357600080fd5b50565b6121ff81611da9565b811461220a57600080fd5b50565b61221681611dd5565b811461222157600080fd5b5056fea2646970667358221220e513fc32ba31805662a701e3da76a5477b64b2f87d1b56495dc5d051a220159a64736f6c63430008040033",
  "linkReferences": {},
  "deployedLinkReferences": {}
}